:020000040800F2
:10000000700600204D02000857140008C5130008B0
:1000100055140008191300085D16000800000000C0
:100020000000000000000000000000005B14000859
:100030001B13000800000000591400085D1400089C
:1000400067020008670200086702000867020008EC
:1000500067020008670200086702000867020008DC
:1000600067020008670200086702000867020008CC
:1000700067020008670200086702000867020008BC
:10008000670200086702000867020008000000001D
:1000900000000000000000000000000067020008EF
:1000A000670200086702000867020008670200088C
:1000B000670200086702000867020008670200087C
:1000C000670200086702000867020008670200086C
:1000D00067020008670200084116000800000000DF
:1000E00067020008670200086702000800000000BD
:1000F000000000000000000000000000670200088F
:10010000000000006702000867020008670200089C
:1001100000000000000000000000000000000000DF
:10012000670200086702000867020008670200080B
:10013000670200080000000000000000000000004E
:10014000000000000000000000000000670200083E
:1001500067020008670200086702000867020008DB
:1001600067020008670200080000000000000000AD
:10017000000000000000000000000000000000007F
:1001800000000000670200080000000000000000FE
:100190006702000800F002F800F049F80AA090E8B1
:1001A000000C82448344AAF10107DA4501D100F032
:1001B0003EF8AFF2090EBAE80F0013F0010F18BFB6
:1001C000FB1A43F0010318476C1800008C1800005C
:1001D000103A24BF78C878C1FAD8520724BF30C873
:1001E00030C144BF04680C60704700000023002445
:1001F00000250026103A28BF78C1FBD8520728BF37
:1002000030C148BF0B607047672901F0C7830020E9
:1002100070471FB501F0BDFB00F012FB0400002089
:10022000002101F029FBE0601FBD10B510BD00F0FA
:1002300007FC1146FFF7EDFF01F04CFA00F025FC3A
:1002400003B4FFF7F2FF03BC00F068FC09488047E5
:1002500009480047FEE7FEE7FEE7FEE7FEE7FEE7A8
:10026000FEE7FEE7FEE7FEE704480549054A064BC0
:10027000704700006114000895010008700000201C
:100280007006002070020020700200200FB41CB520
:100290000C0007AA009001D02044401E074B7B446D
:1002A00069460190069800F0AAFA002C03D069462E
:1002B000002000F0B7FA1CBC5DF814FB8D050000AF
:1002C0002DE9F0474FF0000A89460446C0F820A007
:1002D0002046E1688847002876D0252806D0D4E952
:1002E00001219047206A401C2062F1E7E168204626
:1002F00000258847C4F81CA006460027C4F818A0AB
:100300002A2E09D0304601F0C2F938B304EB870831
:10031000303EC8F8186019E059F8041B204604EB79
:1003200087029161E1688847012F064618D1E0698C
:10033000002820DA25F020051DE0D8F8180000EB91
:10034000800006EB40003038C8F818002046E1680D
:100350008847064601F09BF90028EED1012F0AD00C
:100360002E2E08D12046E16888477F1C0646022FC2
:1003700045F02005C4DBA069002803DA404245F0BF
:100380000105A061E80701D025F01005B6B1A6F17E
:100390004100192802D8203645F400654A46314606
:1003A000204625604D46FFF72FFF58B1012806D0A3
:1003B000ED1D25F0070000F1080989E704E005F1CB
:1003C000040985E730468AE7206ABDE8F087704770
:1003D0007047704770472DE9FF4F0C461E464FF09F
:1003E000FF378BB0D2E90001DDF860800A908A46C1
:1003F000C1F30A5505B93D46002108464FF00000FB
:10040000BAF1000F00F4400005DA00EB80004FF471
:10041000400101EA50004FEA9059B9F1010F00DDA7
:10042000B9460A9850EA4A000ED044F61050A5F298
:10043000FF3545432F14B8F1000F1ED07542291E19
:100440001EDDC9F100021CE0B8F1010F4FF0000001
:1004500001D0302103E0F24305E02154401CB042BA
:10046000FBDB30460022002121540B99C1F80880A3
:10047000C1E900200FB0BDE8F08FBD1B6D1CDEE7A9
:100480004A4600DA694206A800F064FA06AB93E82F
:10049000070003AB83E8070050460A9900F045FBCC
:1004A0008DE80700A0F500501F3800900398002D3C
:1004B0000ADD42F21F014A460844002303A90390C3
:1004C000684600F0AEFD09E0A0F500504A461F382E
:1004D000002303A90390684600F0B8FD8DE80700EB
:1004E0000004000C03D04FF0FF30410800E010463C
:1004F000B8F1000F03D00022009215461EE0751ED1
:1005000005D400F0A1F9303262556D1EF9D5B3461D
:100510000122084302D000227F1C04E0207830280A
:1005200001D100227F1E002A099784D01DE0112DE1
:1005300007DA00F089F9303262556D1C50EA010289
:10054000F5D1084302D00098C8B10EE00021681E22
:1005500005E0235C625C63542254401E491C8142C6
:10056000F7DBAB46A81B401E0990002004F80B00E7
:100570000B98099AC0F80880C0E9002B7AE7112689
:100580004FF0000857E72DE9F04F88460446D21D8A
:1005900022F0070191B0D1E90001CDE90A0101F093
:1005A0005EF802460B98C00F01D02D2007E02068AE
:1005B000810701D52B2002E0202101EAC000032A97
:1005C000099001D0072A05DB03464146204600F08A
:1005D00081F90BE12078800601D5E06900E0062072
:1005E000B8F1650F814606D0B8F1660F18D0B8F1A2
:1005F000670F70D131E00020B9F1110F009001DBDD
:10060000112301E009F101030AAA01A90CA8FFF7CF
:10061000E2FEDDE90C70002609F10105834647E0A2
:1006200001204B4600904FF000470AAA01A90CA8F0
:10063000FFF7D1FEDDE90DB00C995D46002610B93B
:1006400009F101000D18B9EB050003D4C0F1FF3624
:1006500009F10105A5EB09002BE0B9F1010F01DA61
:100660004FF001090020B9F1110F0090484601DD5B
:10067000112300E003460AAA01A90CA8FFF7ABFE6C
:10068000DDE90C704D4600268346207800070AD429
:10069000AB4500DA5D4601A8012D04DD411911F8D2
:1006A000011C302907D04F4502DA17F1040F04DA94
:1006B000012082460FE06D1EEEE7002F02DCED1BED
:1006C0003E4403E0781CA84200DD7D1CB81B00F10D
:1006D000010A4FF000472078000703D4AA4501DB48
:1006E0004FF0FF3A0021B7F1004F0DF143088DF8AC
:1006F000431024D002202B23002F01DA7F422D2328
:100700000A21021EA0F1010000DC5FB197FBF1FCA1
:1007100097FBF1F201FB1C7C17460CF1300C08F83A
:1007200001CDEEE7A8F1010003702188090501D58C
:10073000452100E06521A0F1010800F8011C09989D
:100740000FA9A1EB0807FF1D00B10120411901EB22
:10075000EA70A1693844081A401EA0612078C006DA
:1007600002D42046AFF30080099828B1D4E90121D2
:100770009047206A401C20622078C00622D520467F
:10078000AFF300801EE0002E04DBB34502DD01A8BC
:10079000805D00E03020D4E901219047206A401CB0
:1007A0002062761CAAF101005FEA000A0AD100F07B
:1007B00047F8C0680168405CD4E901219047206A8D
:1007C000401C2062281EA5F10105DCDC07E0D4E90D
:1007D000012118F8010B9047206A401C2062381E46
:1007E000A7F10107F3DC2046AFF30080032011B02E
:1007F00041E6000001694A1C02610878704700B5B3
:100800008FB0CDE901310021059105497944CDE949
:10081000031011466846FFF753FD0FB000BD0000FE
:10082000E5FFFFFF0A6802F8010B0A607047D1E993
:1008300000239A4202D2531C0B60107070470000D4
:10084000004870472C00002030B5B0F10A024FEA92
:10085000900E71F100034EEA817EB0EB0E0061EB69
:1008600091014FEA101E4EEA017E10EB0E0041EBA3
:1008700011114FEA102E4EEA016E10EB0E0041EB03
:1008800011214FEA104E4EEA014E10EB0E0041EBE3
:100890001141401841F100014FEAD00040EA417097
:1008A0004FEAD10110EB80054FEA810444EA9074CD
:1008B00044EB01046D1944EB0404521BA3414FF0B7
:1008C000000348BF0A3200D530BD401C41F1000191
:1008D00030BD00002DE9F0411F46044603260168A3
:1008E000072A01F4006004DB08B116A505E016A58F
:1008F00003E008B115A500E015A521F01000206067
:10090000A069C01EA0610FB1401EA0612046AFF3D8
:1009100000804FB1D4E9012138469047206A401C3D
:100920002062C01C206206E0206AFAE7D4E90121B7
:1009300015F8010B9047761EF8D22046AFF30080E1
:10094000BDE8F0814E414E006E616E00494E46009A
:10095000696E66002DE9F047814616468AB0354833
:1009600078440DC88DE80D0032487844801C03ACF3
:100970000DC884E80D0041F69B300844372190FBF8
:10098000F1F290FBF1F5A5F1800501FB12041B3C8F
:1009900002D56442012000E00020DFF898A08046E4
:1009A0000027FA44AAF1BE0A0EE0E0070AD0324658
:1009B000684607EB470101230AEB810100F046FB83
:1009C0008DE8070064107F1C002CEED1194F7F4486
:1009D000AE3F19E0E80715D007EB04100DF1180A37
:1009E00090E80E008AE80E00C068F04201D1981924
:1009F00008903246012306A903A800F027FB03ABA9
:100A000083E807006D10641C002DE3D14FF0010353
:100A100032466946B8F1000F03A802D000F001FB8E
:100A200001E000F013FBC9E90001C9F808200AB091
:100A3000BDE8F087B8100000004870470C000020A7
:100A40007546FFF7F9FFAE4605006946534620F0AC
:100A50000700854618B020B5FFF706FCBDE820402A
:100A60004FF000064FF000074FF000084FF0000B6A
:100A700021F00701AC46ACE8C009ACE8C009ACE81D
:100A8000C009ACE8C0098D46704710B50446AFF305
:100A900000802046BDE81040FFF7D2BB4FF0013C7C
:100AA00050F8042B51F8043B9A4221D1A2EB0C03DD
:100AB000934313EACC1317D150F8042B51F8043B9D
:100AC0009A4215D1A2EB0C03934313EACC130BD13A
:100AD00050F8042B51F8043B9A4209D1A2EB0C03C5
:100AE000934313EACC13DBD04FF00000704700BFF4
:100AF000D01A01BAB1FA81F101F0180122FA01F01D
:100B0000CB40C1F12001DBB2C0B2C01A2CFA01F314
:100B1000D11A914311EAC311E6D170470149182057
:100B2000ABBEFEE72600020070475FEA400C08BF3C
:100B300091F0000F4FEA8C234FEAC12243EA515152
:100B40004FEA1C5018BF00F5F0404FEA300018BFC4
:100B500041F000415FEA6C5C00F02980BCF1FF3F8E
:100B600008BF40F080407047130C06BF12044FF0DE
:100B7000100C4FF0000C130E04BF12020CF1080C05
:100B8000130F04BF12010CF1040C930F04BF920069
:100B90000CF1020CD30F04BF52000CF1010C1146F2
:100BA0004FF00002A0F11F00A0EB0C00704711F005
:100BB000004F08BF704731F000413FF4D5AF0B0C38
:100BC00006BF09044FF0100C4FF0000C0B0E04BFD1
:100BD00009020CF1080C0B0F04BF09010CF1040C05
:100BE0008B0F04BF89000CF1020CCB0F04BF49002E
:100BF0000CF1010CCCF12003A0EB0C0022FA03F362
:100C000002FA0CF241EA030100F10100704720F002
:100C10007F4C80EA030023F07F47ACEB070303F52A
:100C20007C5300F0004003F1FF032DE980494FEAB7
:100C3000154B09B44FEA144325EA0B4E24EA034846
:100C40000FF2042606EB132749083E785FEA3202CA
:100C500003FB0667C7F5000707FB06F64FEA5437A4
:100C60004FEAD64606F1020607FB066CCCF1005CA3
:100C70004FEA1C472CEA074C07FB06F40CFB06F571
:100C800004EB15464FEA961634BF00204FF00040A3
:100C90004FEAD13706FB07FC4FEA1C4C0CFB0BF765
:100CA000D21B03FB0CF761EB07010CFB0EF7B0EB5B
:100CB000074072EB17420CFB08F734BFA2EB074268
:100CC000B2EB074261EB17414FEA0C444FEA910740
:100CD00006FB07FC4FEA1C4C0CFB0BF7B0EBC740C4
:100CE00072EB573203FB0CF734BFA2EBC742B2EBF7
:100CF000C74261EB57310CFB0EF7B0EBC70072EB4C
:100D000057720CFB08F734BFA2EBC702B2EBC70265
:100D100061EB5771039F4FEA816141EA921104EB45
:100D2000CC044FEAD1374FEA826206FB07FC42EA65
:100D300090124FEA80604FEA1C4C0CFB0BF7D21B61
:100D400003FB0CF761EB07010CFB0EF7B0EB074060
:100D500072EB17420CFB08F734BFA2EB0742B2EB71
:100D6000074261EB17414FEA8C554FEA910704EBBC
:100D70009C2406FB07FC4FEA1C4C0CFB0BF7B0EB6A
:100D8000C74072EB573203FB0CF734BFA2EBC742EC
:100D9000B2EBC74261EB57310CFB0EF7B0EBC7006B
:100DA00072EB57720CFB08F734BFA2EBC702B2EB31
:100DB000C70261EB577115EB4C254FEA816141EA9F
:100DC00092114FEA82624FEAD13742EA901206FB53
:100DD00007FC44F100044FEA80604FEA1C4C0CFB16
:100DE0000BF7D21B03FB0CF761EB07010CFB0EF7B3
:100DF000B0EB074072EB17420CFB08F734BFA2EBD5
:100E00000742B2EB074261EB174115EB1C154FEAA5
:100E1000813141EA92414FEA823242EA90424FEAFE
:100E200080304FEA0C7644F1000448EA03434EEA6E
:100E30000B484FF0000EB2EB080C71EB030724BF18
:100E4000624639464EEB0E0E4FF0000B0018524131
:100E500049414BEB0B0BB2EB080C71EB03077BF139
:100E6000000B24BF624639464EEB0E0E4FF0000BCE
:100E70000018524149414BEB0B0BB2EB080C71EBE4
:100E800003077BF1000B24BF624639464EEB0E0E82
:100E900051EA020718BF46F0010616EB0E7655F12F
:100EA000000254F1000103D5BDE88901BDE80088C6
:100EB000BDE88901BDE80048B619524141EB010186
:100EC000A3F10103704780807F7E7D7C7B7A7978F7
:100ED000777676757473727171706F6E6E6D6C6CFF
:100EE0006B6A6A69686867666665646463636261A1
:100EF0006160605F5F5E5E5D5D5C5C5B5B5A5A5922
:100F0000595858575756565555555454535352528D
:100F10005251515050504F4F4F4E4E4D4D4D4C4CE5
:100F20004C4B4B4B4A4A4A4949494848484747472E
:100F3000474646464545454444444443434343426B
:100F4000424242414141002B9C4630D477002BD095
:100F50001CB54FEA370703B44FF010004FF01001F3
:100F6000BAF1000F06D0BCF1000FDCBF40F0080062
:100F700040F008014FF000000FBCBDE810400BF13D
:100F8000010BBBF1010F08BF5FEA170722BF12F187
:100F9000010211F101014FF0004143F1000300F0A3
:100FA000004043EA00007047F9D35708D0E746EA0B
:100FB000064613F1400F4FEA16461FDD13F1200FCE
:100FC000DFBF16430A46002120335B42BED0C3F187
:100FD000200746EA064602FA07F74FEA164646EAAF
:100FE0000706C3F1200722FA03F201FA07F721FAF4
:100FF00003F14FF0000342EA0702A7E746EA0206C0
:1010000046EA06464FEA164646EA0106BCBF46EAED
:101010000646360C4FF000034FF000024FF000017F
:1010200094E72DE9804C9A46934670B491E83800D5
:1010300007C831EA400C48BF34EA430C03D5FFF738
:10104000E6FDFFF780FFF0BCBDE8008C2DE9804C89
:101050009A46934670B491E8380007C810F0804F64
:1010600008BF13F0804F03D100F005F8FFF76BFFC6
:10107000F0BCBDE8008C20F07F4780EA030023F03D
:101080007F4C07EB0C03A3F57C5300F00040A3F169
:10109000FE0392F0000F00F0B38095F0000F00F017
:1010A00077802DE901494FEA11404FEA144621EAC1
:1010B000004800FB06FC24EA064708FB06F607FB8F
:1010C00008F800FB07F718EB06484CEB164C4FEA04
:1010D000124B18EB07484FEA15464CEB174022EA33
:1010E0000B4E0BFB06FC25EA06470EFB06F607FB3C
:1010F0000EFE0BFB07F71EEB064E4CEB164C4FF0AB
:1011000000061EEB074E4CEB174B18EB0B0840F19B
:10111000000018EB0E0B58EB000840F100008F1A8E
:101120004FF000013CBFC943661B14BFB5EB040C74
:1011300000213CBFC943F61B4FEA17444EEA8E0E0E
:1011400027EA04454FEA1C4704FB07622CEA074CD8
:1011500005FB07F70CFB05F604FB0CFC16EB07463A
:1011600042EB174216EB0C4642EB1C421BEB060609
:1011700058EB0202414146EA9E0601D5BDE80189CD
:10118000B619524141EB0101A3F10103BDE8018908
:101190004FEA14454FEA114724EA054621EA074C75
:1011A00005FB07F406FB07F70CFB06F105FB0CFC3F
:1011B00011EB074144EB17444FEA124711EB0C4186
:1011C00044EB1C4422EA074C05FB07F206FB07F739
:1011D0000CFB06F605FB0CFC16EB074642EB174230
:1011E00016EB0C4642EB1C456A1854F1000148BF4F
:1011F0007047B619524141EB0101A3F10103704759
:1012000095F0000F37D04FEA11424FEA144721EA18
:10121000024624EA074C02FB07F106FB07F70CFB2A
:1012200006F402FB0CFC14EB074441EB17414FEAB8
:10123000154714EB0C4441EB1C4125EA074C02FB1B
:1012400007F506FB07F70CFB06F602FB0CFC16EB9A
:10125000074645EB174516EB0C4645EB1C421219A9
:1012600051F1000148BF7047B619524141EB0101ED
:10127000A3F1010370474FEA14454FEA114724EAEE
:10128000054621EA074C05FB07F106FB07F70CFBB7
:1012900006F24FF0000605FB0CFC12EB074241EB97
:1012A000174112EB0C4251EB1C4148BF704792189A
:1012B00041EB0101A3F101037047000013480168ED
:1012C00041F0010101601248016841F00401016030
:1012D000016841F008010160016841F0010101600D
:1012E000016841F00201016008481430016841F4CE
:1012F000807101600748092101614FF48011C162CA
:10130000816841F00101816070470000303802407F
:101310000000024000200140FEE7704707480168D6
:1013200041F0020101600648016821F003010160FB
:10133000016841F00101016070470000303802404F
:10134000000402400748016841F0040101600648BA
:10135000016821F003010160016841F001010160B1
:10136000704700003038024000080240074801681A
:1013700041F0040101600648016821F00C010160A0
:10138000016841F0080101607047000030380240F8
:10139000000802400548016841F00401016004486A
:1013A000016821F0300101607047000030380240D0
:1013B0000008024002488168027811448160704749
:1013C00000000020FEE700001F48016841F0020114
:1013D00001601D481030016841F4001101601B4894
:1013E000016841F420210160001D016841F4407151
:1013F0000160001D016841F470210160001D016859
:1014000041F4A021016011482430016841F04401F9
:1014100001600F48016841F400410160016821F456
:1014200000410160011D0A6842F02A020A60084A70
:10143000D2211C3211602B21121D1160016841F074
:101440000101016070470000303802400004024092
:1014500000540040FEE7FEE770477047FFF7AABF61
:101460000248016841F470010160704788ED00E0B6
:101470000248016841F001010160704740380240B4
:101480001848016841F001010160164810300168F8
:1014900041F0020101601448016821F440510160EB
:1014A000016841F400510160016A41F0007101627C
:1014B0000E49002008606420091D08600B481038A0
:1014C000016841F06001016008480838016841F096
:1014D0000101016005482838016841F001010160FF
:1014E00070470000303802400000024028040040ED
:1014F0001948016841F00201016017481030016885
:1015000041F0040101601548016821F44051016077
:10151000016841F40051016010482030016841F039
:10152000007101600E49002008606420091D0860F8
:101530000B481038016841F0600101600848083824
:10154000016841F00101016005482838016841F057
:101550000101016070470000303802400004024081
:10156000280800401748016841F001010160154852
:101570001030016841F4003101601348016841F006
:10158000A0010160016A41F4EE4101620F4940F29D
:1015900083600860081D016841F400510160016822
:1015A00041F00C010160016841F02001016008492F
:1015B000502081F80004064940202239C1F800017A
:1015C00070470000303802400000024008440040EC
:1015D00026E000E003490A681206FCD50149091D0E
:1015E000086070470044004030B52DED028B8DB08F
:1015F000B0EE408A10EE900A00F05AF904460D460B
:1016000018EE100A00F054F98DE8330005A22021ED
:1016100004A8FEF73BFE04A800F008F80DB0BDECEE
:10162000028B30BD25672025670A000000B5034600
:1016300002E05B1CFFF7CEFF18780028F9D100BD4F
:1016400005480068800605D50348001D0068C0B243
:10165000FFF7C0BF7047000000440040FEE703B43E
:1016600001984100009850EAC12018BF04204A0D9B
:1016700018BF40F0010040F2FF72B2EB515F08BFAB
:1016800040F00200012808BF052002B07047303842
:101690000A2801D201207047002070474FF0804196
:1016A0000F228A62C86201204861086920F00100A7
:1016B0000861086840F0010008600869C007FCD0B4
:1016C000086920F001000861086820F00100086046
:1016D000704700002DED0A8BFFF744FFFFF7C8FEAF
:1016E000FFF7CEFEFFF704FFFFF7E8FDFFF716FE5A
:1016F000FFF728FEFFF73AFEFFF74CFEFFF764FE08
:101700009FED4DCADFED4DCA4D4D00BFF0EE4C0AC6
:10171000B0EE6C0AFFF768FF641C0A2C284602D062
:10172000FFF7BCFFF2E7FFF7B9FF9FED468AF0EE47
:10173000480ADFED458AB0EE680AFFF755FF2846F4
:10174000FFF7ACFFDFED410A9FED410AFFF74CFFC9
:101750002846FFF7A3FF9FED3F9ADFED3F9AF0EE9B
:10176000490AB0EE690AFFF73FFF2846FFF796FFE8
:101770009FED3AAA9FED3A0AF0EE4A0AFFF734FFCE
:101780002846FFF78BFFDFED37AAF0EE4A0AB0EEEE
:101790006A0AFFF729FF2846FFF780FF9FED32BA5C
:1017A000F0EE4A0AB0EE4B0AFFF71EFF2846FFF79D
:1017B00075FFDFED2EBAF0EE4A0AB0EE6B0AFFF7C6
:1017C00013FF2846FFF76AFFDFED290A9FED290A7C
:1017D000FFF70AFF2846FFF761FFF0EE4A0AB0EE76
:1017E0006B0AFFF701FF2846FFF758FFF0EE4A0AA1
:1017F000B0EE4B0AFFF7F8FE2846FFF74FFFF0EE7A
:101800004A0AB0EE6A0AFFF7EFFE2846FFF746FFE6
:10181000F0EE490AB0EE690AFFF7E6FE2846FFF748
:101820003DFFF0EE480AB0EE680AFFF7DDFE2846FD
:10183000FFF734FF70E700009A99D541000081421C
:10184000801A06000000D441666682426666D24174
:1018500000008542CDCCD041333386420000CC41DC
:1018600066668842CDCC8A4266668D4266668E4246
:101870003333CB419A99914210B500290AD00878A8
:10188000002807D005487844FFF708F9002801D060
:10189000002010BD0248784410BD0000CE010000B9
:1018A000C60100000808A0F500114FEA3101704799
:1018B00043004FEAD30C4FEA3C0C43401FBF4007A4
:1018C0000CF1605113F0FE4F70471CF0006F03D114
:1018D00000200CF0004170470CF0004343EA5070C8
:1018E00010B540EACC0000F00EF800BF00000092F6
:1018F0004FEA0001FFF7D6BF4FF000414FF0000064
:10190000A1F5002170470EF1020E2EF0030E5EF8D5
:10191000044B244204D44FEA4102B2F17F4F11D864
:101920004FEA4003B3F17F4F0CD80ED14FEAD07C81
:10193000B2F17F4F0CEB4C0C0CF1020C08BF4CEBDE
:10194000D17C04E04FF0080C01E04FEAD17C0CEBB5
:101950004C0324FA03F404F00704B4F1040C06D297
:101960000EEB840CBDE810404CF0010C6047DFE842
:101970000CF0070802024FF00040A0F5800010BDF7
:101980000846420018BFD2F1807288BF00F00040C4
:1019900010BD4FF04070E1EE100A7047FEF7F3BD46
:1019A00002400000000000A0000000000540000010
:1019B000000000C8000000000C4000000000409C37
:1019C00000000000194000000020BCBE0000000024
:1019D00034400000BFC91B8E00000004B540000069
:1019E000504BCFD06607E2CF010000006C410000F1
:1019F0003E8251AADFEEA73401000000D942000068
:101A0000DCB5A0E23A301F97FFFFFFFFB4450000AE
:101A1000FD25A0C8E9A3C14FFFFFFFFFFF3F000066
:101A20000000008000000000FF3F00000000008078
:101A300000000000701A0008000000200C000000E8
:101A4000D00100087C1A00080C0000206406000089
:101A5000EC0100081C00000043000000F8FFFFFF3D
:101A60000C0000000E0000000F0000002E0000001F
:0C1A700001000000100000000000000059
:040000050800019559
:00000001FF
